{
  "_format": "hh-sol-artifact-1",
  "contractName": "SupplyChain",
  "sourceName": "contracts/Supplychain.sol",
  "abi": [
    {
      "inputs": [],
      "stateMutability": "nonpayable",
      "type": "constructor"
    },
    {
      "anonymous": false,
      "inputs": [
        {
          "indexed": true,
          "internalType": "uint256",
          "name": "distributorBatchId",
          "type": "uint256"
        },
        {
          "indexed": true,
          "internalType": "uint256",
          "name": "originBatchId",
          "type": "uint256"
        },
        {
          "indexed": true,
          "internalType": "address",
          "name": "distributor",
          "type": "address"
        },
        {
          "indexed": false,
          "internalType": "uint256",
          "name": "qtyKg",
          "type": "uint256"
        },
        {
          "indexed": false,
          "internalType": "uint256",
          "name": "pricePerKg",
          "type": "uint256"
        },
        {
          "indexed": false,
          "internalType": "uint256",
          "name": "when",
          "type": "uint256"
        }
      ],
      "name": "BatchPurchased",
      "type": "event"
    },
    {
      "anonymous": false,
      "inputs": [
        {
          "indexed": true,
          "internalType": "uint256",
          "name": "requestId",
          "type": "uint256"
        },
        {
          "indexed": true,
          "internalType": "uint256",
          "name": "packId",
          "type": "uint256"
        },
        {
          "indexed": true,
          "internalType": "address",
          "name": "requester",
          "type": "address"
        },
        {
          "indexed": false,
          "internalType": "uint256",
          "name": "qtyKg",
          "type": "uint256"
        },
        {
          "indexed": false,
          "internalType": "bool",
          "name": "wantsRetailer",
          "type": "bool"
        },
        {
          "indexed": false,
          "internalType": "uint256",
          "name": "amountPaid",
          "type": "uint256"
        },
        {
          "indexed": false,
          "internalType": "uint256",
          "name": "when",
          "type": "uint256"
        }
      ],
      "name": "BuyRequestCreated",
      "type": "event"
    },
    {
      "anonymous": false,
      "inputs": [
        {
          "indexed": true,
          "internalType": "uint256",
          "name": "requestId",
          "type": "uint256"
        },
        {
          "indexed": true,
          "internalType": "uint256",
          "name": "packId",
          "type": "uint256"
        },
        {
          "indexed": true,
          "internalType": "address",
          "name": "requester",
          "type": "address"
        },
        {
          "indexed": false,
          "internalType": "bool",
          "name": "accepted",
          "type": "bool"
        },
        {
          "indexed": false,
          "internalType": "uint256",
          "name": "when",
          "type": "uint256"
        }
      ],
      "name": "BuyRequestResolved",
      "type": "event"
    },
    {
      "anonymous": false,
      "inputs": [
        {
          "indexed": true,
          "internalType": "address",
          "name": "previousOwner",
          "type": "address"
        },
        {
          "indexed": true,
          "internalType": "address",
          "name": "newOwner",
          "type": "address"
        }
      ],
      "name": "OwnershipTransferred",
      "type": "event"
    },
    {
      "anonymous": false,
      "inputs": [
        {
          "indexed": true,
          "internalType": "uint256",
          "name": "packId",
          "type": "uint256"
        },
        {
          "indexed": true,
          "internalType": "uint256",
          "name": "distributorBatchId",
          "type": "uint256"
        },
        {
          "indexed": true,
          "internalType": "address",
          "name": "distributor",
          "type": "address"
        },
        {
          "indexed": false,
          "internalType": "uint256",
          "name": "qtyKg",
          "type": "uint256"
        },
        {
          "indexed": false,
          "internalType": "uint256",
          "name": "pricePerKg",
          "type": "uint256"
        },
        {
          "indexed": false,
          "internalType": "uint256",
          "name": "when",
          "type": "uint256"
        }
      ],
      "name": "PackCreated",
      "type": "event"
    },
    {
      "anonymous": false,
      "inputs": [
        {
          "indexed": true,
          "internalType": "uint256",
          "name": "packId",
          "type": "uint256"
        },
        {
          "indexed": false,
          "internalType": "uint8",
          "name": "visibility",
          "type": "uint8"
        },
        {
          "indexed": false,
          "internalType": "address",
          "name": "privateAddress",
          "type": "address"
        },
        {
          "indexed": false,
          "internalType": "uint256",
          "name": "when",
          "type": "uint256"
        }
      ],
      "name": "PackListed",
      "type": "event"
    },
    {
      "anonymous": false,
      "inputs": [
        {
          "indexed": true,
          "internalType": "uint256",
          "name": "batchId",
          "type": "uint256"
        },
        {
          "indexed": true,
          "internalType": "address",
          "name": "farmer",
          "type": "address"
        },
        {
          "indexed": false,
          "internalType": "uint8",
          "name": "visibility",
          "type": "uint8"
        },
        {
          "indexed": false,
          "internalType": "uint256",
          "name": "when",
          "type": "uint256"
        }
      ],
      "name": "ProductAdded",
      "type": "event"
    },
    {
      "anonymous": false,
      "inputs": [
        {
          "indexed": true,
          "internalType": "uint256",
          "name": "batchId",
          "type": "uint256"
        },
        {
          "indexed": true,
          "internalType": "address",
          "name": "farmer",
          "type": "address"
        },
        {
          "indexed": false,
          "internalType": "uint256",
          "name": "when",
          "type": "uint256"
        }
      ],
      "name": "ProductUpdated",
      "type": "event"
    },
    {
      "anonymous": false,
      "inputs": [
        {
          "indexed": true,
          "internalType": "uint256",
          "name": "unitId",
          "type": "uint256"
        },
        {
          "indexed": true,
          "internalType": "uint256",
          "name": "parentPackId",
          "type": "uint256"
        },
        {
          "indexed": true,
          "internalType": "address",
          "name": "retailer",
          "type": "address"
        },
        {
          "indexed": false,
          "internalType": "uint256",
          "name": "qtyKg",
          "type": "uint256"
        },
        {
          "indexed": false,
          "internalType": "uint256",
          "name": "pricePerKg",
          "type": "uint256"
        },
        {
          "indexed": false,
          "internalType": "uint256",
          "name": "when",
          "type": "uint256"
        }
      ],
      "name": "RetailUnitCreated",
      "type": "event"
    },
    {
      "anonymous": false,
      "inputs": [
        {
          "indexed": true,
          "internalType": "address",
          "name": "user",
          "type": "address"
        },
        {
          "indexed": true,
          "internalType": "uint8",
          "name": "role",
          "type": "uint8"
        },
        {
          "indexed": false,
          "internalType": "uint256",
          "name": "when",
          "type": "uint256"
        }
      ],
      "name": "RoleApproved",
      "type": "event"
    },
    {
      "anonymous": false,
      "inputs": [
        {
          "indexed": true,
          "internalType": "address",
          "name": "user",
          "type": "address"
        },
        {
          "indexed": true,
          "internalType": "uint8",
          "name": "role",
          "type": "uint8"
        },
        {
          "indexed": false,
          "internalType": "uint256",
          "name": "when",
          "type": "uint256"
        }
      ],
      "name": "RoleRequested",
      "type": "event"
    },
    {
      "anonymous": false,
      "inputs": [
        {
          "indexed": true,
          "internalType": "address",
          "name": "user",
          "type": "address"
        },
        {
          "indexed": true,
          "internalType": "uint8",
          "name": "previousRole",
          "type": "uint8"
        },
        {
          "indexed": false,
          "internalType": "uint256",
          "name": "when",
          "type": "uint256"
        }
      ],
      "name": "RoleRevoked",
      "type": "event"
    },
    {
      "anonymous": false,
      "inputs": [
        {
          "indexed": true,
          "internalType": "uint256",
          "name": "unitId",
          "type": "uint256"
        },
        {
          "indexed": false,
          "internalType": "uint8",
          "name": "visibility",
          "type": "uint8"
        },
        {
          "indexed": false,
          "internalType": "uint256",
          "name": "when",
          "type": "uint256"
        }
      ],
      "name": "UnitListed",
      "type": "event"
    },
    {
      "anonymous": false,
      "inputs": [
        {
          "indexed": true,
          "internalType": "uint256",
          "name": "purchaseId",
          "type": "uint256"
        },
        {
          "indexed": true,
          "internalType": "uint256",
          "name": "unitId",
          "type": "uint256"
        },
        {
          "indexed": true,
          "internalType": "address",
          "name": "buyer",
          "type": "address"
        },
        {
          "indexed": false,
          "internalType": "address",
          "name": "seller",
          "type": "address"
        },
        {
          "indexed": false,
          "internalType": "uint256",
          "name": "qtyKg",
          "type": "uint256"
        },
        {
          "indexed": false,
          "internalType": "uint256",
          "name": "pricePerKg",
          "type": "uint256"
        },
        {
          "indexed": false,
          "internalType": "uint256",
          "name": "when",
          "type": "uint256"
        }
      ],
      "name": "UnitPurchased",
      "type": "event"
    },
    {
      "anonymous": false,
      "inputs": [
        {
          "indexed": true,
          "internalType": "address",
          "name": "user",
          "type": "address"
        },
        {
          "indexed": false,
          "internalType": "uint256",
          "name": "amount",
          "type": "uint256"
        },
        {
          "indexed": false,
          "internalType": "uint256",
          "name": "when",
          "type": "uint256"
        }
      ],
      "name": "Withdrawn",
      "type": "event"
    },
    {
      "inputs": [
        {
          "internalType": "string",
          "name": "cropName",
          "type": "string"
        },
        {
          "internalType": "string",
          "name": "cropPeriod",
          "type": "string"
        },
        {
          "internalType": "uint256",
          "name": "daysToHarvest",
          "type": "uint256"
        },
        {
          "internalType": "uint256",
          "name": "quantityKg",
          "type": "uint256"
        },
        {
          "internalType": "uint256",
          "name": "pricePerKg",
          "type": "uint256"
        },
        {
          "internalType": "string",
          "name": "location",
          "type": "string"
        },
        {
          "internalType": "uint8",
          "name": "visibility",
          "type": "uint8"
        },
        {
          "internalType": "string",
          "name": "ipfsHash",
          "type": "string"
        }
      ],
      "name": "addProduct",
      "outputs": [],
      "stateMutability": "nonpayable",
      "type": "function"
    },
    {
      "inputs": [
        {
          "internalType": "uint256",
          "name": "requestId",
          "type": "uint256"
        },
        {
          "internalType": "bool",
          "name": "accept",
          "type": "bool"
        }
      ],
      "name": "approveBuyRequest",
      "outputs": [],
      "stateMutability": "nonpayable",
      "type": "function"
    },
    {
      "inputs": [
        {
          "internalType": "address",
          "name": "user",
          "type": "address"
        },
        {
          "internalType": "uint8",
          "name": "role",
          "type": "uint8"
        }
      ],
      "name": "approveRole",
      "outputs": [],
      "stateMutability": "nonpayable",
      "type": "function"
    },
    {
      "inputs": [
        {
          "internalType": "uint256",
          "name": "farmerBatchId",
          "type": "uint256"
        },
        {
          "internalType": "uint256",
          "name": "qtyKg",
          "type": "uint256"
        }
      ],
      "name": "buyFarmerBatch",
      "outputs": [],
      "stateMutability": "payable",
      "type": "function"
    },
    {
      "inputs": [
        {
          "internalType": "uint256",
          "name": "",
          "type": "uint256"
        }
      ],
      "name": "buyRequests",
      "outputs": [
        {
          "internalType": "uint256",
          "name": "requestId",
          "type": "uint256"
        },
        {
          "internalType": "uint256",
          "name": "packId",
          "type": "uint256"
        },
        {
          "internalType": "address",
          "name": "requester",
          "type": "address"
        },
        {
          "internalType": "uint256",
          "name": "qtyKg",
          "type": "uint256"
        },
        {
          "internalType": "bool",
          "name": "wantsRetailer",
          "type": "bool"
        },
        {
          "internalType": "uint256",
          "name": "amountPaid",
          "type": "uint256"
        },
        {
          "internalType": "bool",
          "name": "resolved",
          "type": "bool"
        },
        {
          "internalType": "bool",
          "name": "accepted",
          "type": "bool"
        },
        {
          "internalType": "uint256",
          "name": "createdAt",
          "type": "uint256"
        }
      ],
      "stateMutability": "view",
      "type": "function"
    },
    {
      "inputs": [
        {
          "internalType": "uint256",
          "name": "unitId",
          "type": "uint256"
        },
        {
          "internalType": "uint256",
          "name": "qtyKg",
          "type": "uint256"
        }
      ],
      "name": "buyRetailUnit",
      "outputs": [],
      "stateMutability": "payable",
      "type": "function"
    },
    {
      "inputs": [
        {
          "internalType": "uint256",
          "name": "packId",
          "type": "uint256"
        },
        {
          "internalType": "uint256",
          "name": "qtyKg",
          "type": "uint256"
        },
        {
          "internalType": "bool",
          "name": "wantsRetailer",
          "type": "bool"
        }
      ],
      "name": "createBuyRequest",
      "outputs": [],
      "stateMutability": "payable",
      "type": "function"
    },
    {
      "inputs": [
        {
          "internalType": "uint256",
          "name": "",
          "type": "uint256"
        }
      ],
      "name": "distributorBatches",
      "outputs": [
        {
          "internalType": "uint256",
          "name": "batchId",
          "type": "uint256"
        },
        {
          "internalType": "uint256",
          "name": "originBatchId",
          "type": "uint256"
        },
        {
          "internalType": "address",
          "name": "distributor",
          "type": "address"
        },
        {
          "internalType": "uint256",
          "name": "quantityKg",
          "type": "uint256"
        },
        {
          "internalType": "uint256",
          "name": "purchasePricePerKg",
          "type": "uint256"
        },
        {
          "internalType": "uint256",
          "name": "listedPricePerKg",
          "type": "uint256"
        },
        {
          "internalType": "enum SupplyChain.Visibility",
          "name": "visibility",
          "type": "uint8"
        },
        {
          "internalType": "uint256",
          "name": "createdAt",
          "type": "uint256"
        },
        {
          "internalType": "bool",
          "name": "active",
          "type": "bool"
        }
      ],
      "stateMutability": "view",
      "type": "function"
    },
    {
      "inputs": [
        {
          "internalType": "uint256",
          "name": "",
          "type": "uint256"
        }
      ],
      "name": "farmerProducts",
      "outputs": [
        {
          "internalType": "uint256",
          "name": "batchId",
          "type": "uint256"
        },
        {
          "internalType": "address",
          "name": "farmer",
          "type": "address"
        },
        {
          "internalType": "string",
          "name": "cropName",
          "type": "string"
        },
        {
          "internalType": "string",
          "name": "cropPeriod",
          "type": "string"
        },
        {
          "internalType": "uint256",
          "name": "daysToHarvest",
          "type": "uint256"
        },
        {
          "internalType": "uint256",
          "name": "quantityKg",
          "type": "uint256"
        },
        {
          "internalType": "uint256",
          "name": "pricePerKg",
          "type": "uint256"
        },
        {
          "internalType": "string",
          "name": "location",
          "type": "string"
        },
        {
          "internalType": "enum SupplyChain.Visibility",
          "name": "visibility",
          "type": "uint8"
        },
        {
          "internalType": "string",
          "name": "ipfsHash",
          "type": "string"
        },
        {
          "internalType": "uint256",
          "name": "createdAt",
          "type": "uint256"
        },
        {
          "internalType": "bool",
          "name": "active",
          "type": "bool"
        }
      ],
      "stateMutability": "view",
      "type": "function"
    },
    {
      "inputs": [],
      "name": "getAllUsers",
      "outputs": [
        {
          "internalType": "address[]",
          "name": "",
          "type": "address[]"
        },
        {
          "components": [
            {
              "internalType": "enum SupplyChain.Role",
              "name": "role",
              "type": "uint8"
            },
            {
              "internalType": "bool",
              "name": "requested",
              "type": "bool"
            },
            {
              "internalType": "string",
              "name": "idHash",
              "type": "string"
            },
            {
              "internalType": "string",
              "name": "meta",
              "type": "string"
            },
            {
              "internalType": "uint256",
              "name": "appliedAt",
              "type": "uint256"
            },
            {
              "internalType": "bool",
              "name": "exists",
              "type": "bool"
            }
          ],
          "internalType": "struct SupplyChain.UserInfo[]",
          "name": "",
          "type": "tuple[]"
        }
      ],
      "stateMutability": "view",
      "type": "function"
    },
    {
      "inputs": [
        {
          "internalType": "uint256",
          "name": "farmerBatchId",
          "type": "uint256"
        }
      ],
      "name": "getBatchTrace",
      "outputs": [
        {
          "components": [
            {
              "internalType": "uint256",
              "name": "batchId",
              "type": "uint256"
            },
            {
              "internalType": "address",
              "name": "farmer",
              "type": "address"
            },
            {
              "internalType": "string",
              "name": "cropName",
              "type": "string"
            },
            {
              "internalType": "string",
              "name": "cropPeriod",
              "type": "string"
            },
            {
              "internalType": "uint256",
              "name": "daysToHarvest",
              "type": "uint256"
            },
            {
              "internalType": "uint256",
              "name": "quantityKg",
              "type": "uint256"
            },
            {
              "internalType": "uint256",
              "name": "pricePerKg",
              "type": "uint256"
            },
            {
              "internalType": "string",
              "name": "location",
              "type": "string"
            },
            {
              "internalType": "enum SupplyChain.Visibility",
              "name": "visibility",
              "type": "uint8"
            },
            {
              "internalType": "string",
              "name": "ipfsHash",
              "type": "string"
            },
            {
              "internalType": "uint256",
              "name": "createdAt",
              "type": "uint256"
            },
            {
              "internalType": "bool",
              "name": "active",
              "type": "bool"
            }
          ],
          "internalType": "struct SupplyChain.FarmerProduct",
          "name": "farmer",
          "type": "tuple"
        },
        {
          "components": [
            {
              "internalType": "uint256",
              "name": "batchId",
              "type": "uint256"
            },
            {
              "internalType": "uint256",
              "name": "originBatchId",
              "type": "uint256"
            },
            {
              "internalType": "address",
              "name": "distributor",
              "type": "address"
            },
            {
              "internalType": "uint256",
              "name": "quantityKg",
              "type": "uint256"
            },
            {
              "internalType": "uint256",
              "name": "purchasePricePerKg",
              "type": "uint256"
            },
            {
              "internalType": "uint256",
              "name": "listedPricePerKg",
              "type": "uint256"
            },
            {
              "internalType": "enum SupplyChain.Visibility",
              "name": "visibility",
              "type": "uint8"
            },
            {
              "internalType": "uint256",
              "name": "createdAt",
              "type": "uint256"
            },
            {
              "internalType": "bool",
              "name": "active",
              "type": "bool"
            }
          ],
          "internalType": "struct SupplyChain.DistributorBatch[]",
          "name": "distributorBatchesOut",
          "type": "tuple[]"
        },
        {
          "components": [
            {
              "internalType": "uint256",
              "name": "packId",
              "type": "uint256"
            },
            {
              "internalType": "uint256",
              "name": "distributorBatchId",
              "type": "uint256"
            },
            {
              "internalType": "address",
              "name": "distributor",
              "type": "address"
            },
            {
              "internalType": "uint256",
              "name": "quantityKg",
              "type": "uint256"
            },
            {
              "internalType": "uint256",
              "name": "pricePerKg",
              "type": "uint256"
            },
            {
              "internalType": "enum SupplyChain.Visibility",
              "name": "visibility",
              "type": "uint8"
            },
            {
              "internalType": "address",
              "name": "privateBuyer",
              "type": "address"
            },
            {
              "internalType": "bool",
              "name": "available",
              "type": "bool"
            },
            {
              "internalType": "string",
              "name": "ipfsHash",
              "type": "string"
            },
            {
              "internalType": "uint256",
              "name": "createdAt",
              "type": "uint256"
            }
          ],
          "internalType": "struct SupplyChain.RetailPack[]",
          "name": "retailPacksOut",
          "type": "tuple[]"
        }
      ],
      "stateMutability": "view",
      "type": "function"
    },
    {
      "inputs": [
        {
          "internalType": "address",
          "name": "distributor",
          "type": "address"
        }
      ],
      "name": "getDistributorInventory",
      "outputs": [
        {
          "components": [
            {
              "internalType": "uint256",
              "name": "batchId",
              "type": "uint256"
            },
            {
              "internalType": "uint256",
              "name": "originBatchId",
              "type": "uint256"
            },
            {
              "internalType": "address",
              "name": "distributor",
              "type": "address"
            },
            {
              "internalType": "uint256",
              "name": "quantityKg",
              "type": "uint256"
            },
            {
              "internalType": "uint256",
              "name": "purchasePricePerKg",
              "type": "uint256"
            },
            {
              "internalType": "uint256",
              "name": "listedPricePerKg",
              "type": "uint256"
            },
            {
              "internalType": "enum SupplyChain.Visibility",
              "name": "visibility",
              "type": "uint8"
            },
            {
              "internalType": "uint256",
              "name": "createdAt",
              "type": "uint256"
            },
            {
              "internalType": "bool",
              "name": "active",
              "type": "bool"
            }
          ],
          "internalType": "struct SupplyChain.DistributorBatch[]",
          "name": "",
          "type": "tuple[]"
        },
        {
          "components": [
            {
              "internalType": "uint256",
              "name": "packId",
              "type": "uint256"
            },
            {
              "internalType": "uint256",
              "name": "distributorBatchId",
              "type": "uint256"
            },
            {
              "internalType": "address",
              "name": "distributor",
              "type": "address"
            },
            {
              "internalType": "uint256",
              "name": "quantityKg",
              "type": "uint256"
            },
            {
              "internalType": "uint256",
              "name": "pricePerKg",
              "type": "uint256"
            },
            {
              "internalType": "enum SupplyChain.Visibility",
              "name": "visibility",
              "type": "uint8"
            },
            {
              "internalType": "address",
              "name": "privateBuyer",
              "type": "address"
            },
            {
              "internalType": "bool",
              "name": "available",
              "type": "bool"
            },
            {
              "internalType": "string",
              "name": "ipfsHash",
              "type": "string"
            },
            {
              "internalType": "uint256",
              "name": "createdAt",
              "type": "uint256"
            }
          ],
          "internalType": "struct SupplyChain.RetailPack[]",
          "name": "",
          "type": "tuple[]"
        }
      ],
      "stateMutability": "view",
      "type": "function"
    },
    {
      "inputs": [],
      "name": "getMyProducts",
      "outputs": [
        {
          "components": [
            {
              "internalType": "uint256",
              "name": "batchId",
              "type": "uint256"
            },
            {
              "internalType": "address",
              "name": "farmer",
              "type": "address"
            },
            {
              "internalType": "string",
              "name": "cropName",
              "type": "string"
            },
            {
              "internalType": "string",
              "name": "cropPeriod",
              "type": "string"
            },
            {
              "internalType": "uint256",
              "name": "daysToHarvest",
              "type": "uint256"
            },
            {
              "internalType": "uint256",
              "name": "quantityKg",
              "type": "uint256"
            },
            {
              "internalType": "uint256",
              "name": "pricePerKg",
              "type": "uint256"
            },
            {
              "internalType": "string",
              "name": "location",
              "type": "string"
            },
            {
              "internalType": "enum SupplyChain.Visibility",
              "name": "visibility",
              "type": "uint8"
            },
            {
              "internalType": "string",
              "name": "ipfsHash",
              "type": "string"
            },
            {
              "internalType": "uint256",
              "name": "createdAt",
              "type": "uint256"
            },
            {
              "internalType": "bool",
              "name": "active",
              "type": "bool"
            }
          ],
          "internalType": "struct SupplyChain.FarmerProduct[]",
          "name": "",
          "type": "tuple[]"
        }
      ],
      "stateMutability": "view",
      "type": "function"
    },
    {
      "inputs": [
        {
          "internalType": "uint256",
          "name": "packId",
          "type": "uint256"
        }
      ],
      "name": "getPackOrigin",
      "outputs": [
        {
          "internalType": "uint256",
          "name": "originFarmerBatchId",
          "type": "uint256"
        }
      ],
      "stateMutability": "view",
      "type": "function"
    },
    {
      "inputs": [
        {
          "internalType": "address",
          "name": "distributor",
          "type": "address"
        }
      ],
      "name": "getPendingRequestsForDistributor",
      "outputs": [
        {
          "components": [
            {
              "internalType": "uint256",
              "name": "requestId",
              "type": "uint256"
            },
            {
              "internalType": "uint256",
              "name": "packId",
              "type": "uint256"
            },
            {
              "internalType": "address",
              "name": "requester",
              "type": "address"
            },
            {
              "internalType": "uint256",
              "name": "qtyKg",
              "type": "uint256"
            },
            {
              "internalType": "bool",
              "name": "wantsRetailer",
              "type": "bool"
            },
            {
              "internalType": "uint256",
              "name": "amountPaid",
              "type": "uint256"
            },
            {
              "internalType": "bool",
              "name": "resolved",
              "type": "bool"
            },
            {
              "internalType": "bool",
              "name": "accepted",
              "type": "bool"
            },
            {
              "internalType": "uint256",
              "name": "createdAt",
              "type": "uint256"
            }
          ],
          "internalType": "struct SupplyChain.BuyRequest[]",
          "name": "",
          "type": "tuple[]"
        }
      ],
      "stateMutability": "view",
      "type": "function"
    },
    {
      "inputs": [],
      "name": "getPendingUsers",
      "outputs": [
        {
          "internalType": "address[]",
          "name": "",
          "type": "address[]"
        },
        {
          "components": [
            {
              "internalType": "enum SupplyChain.Role",
              "name": "role",
              "type": "uint8"
            },
            {
              "internalType": "bool",
              "name": "requested",
              "type": "bool"
            },
            {
              "internalType": "string",
              "name": "idHash",
              "type": "string"
            },
            {
              "internalType": "string",
              "name": "meta",
              "type": "string"
            },
            {
              "internalType": "uint256",
              "name": "appliedAt",
              "type": "uint256"
            },
            {
              "internalType": "bool",
              "name": "exists",
              "type": "bool"
            }
          ],
          "internalType": "struct SupplyChain.UserInfo[]",
          "name": "",
          "type": "tuple[]"
        }
      ],
      "stateMutability": "view",
      "type": "function"
    },
    {
      "inputs": [
        {
          "internalType": "address",
          "name": "user",
          "type": "address"
        }
      ],
      "name": "getPurchaseHistory",
      "outputs": [
        {
          "components": [
            {
              "internalType": "uint256",
              "name": "purchaseId",
              "type": "uint256"
            },
            {
              "internalType": "uint256",
              "name": "unitId",
              "type": "uint256"
            },
            {
              "internalType": "uint256",
              "name": "quantityKg",
              "type": "uint256"
            },
            {
              "internalType": "uint256",
              "name": "pricePerKg",
              "type": "uint256"
            },
            {
              "internalType": "uint256",
              "name": "qtyKg",
              "type": "uint256"
            },
            {
              "internalType": "address",
              "name": "seller",
              "type": "address"
            },
            {
              "internalType": "address",
              "name": "buyer",
              "type": "address"
            },
            {
              "internalType": "enum SupplyChain.Role",
              "name": "sellerRole",
              "type": "uint8"
            },
            {
              "internalType": "enum SupplyChain.Role",
              "name": "buyerRole",
              "type": "uint8"
            },
            {
              "internalType": "uint256",
              "name": "timestamp",
              "type": "uint256"
            }
          ],
          "internalType": "struct SupplyChain.PurchaseRecord[]",
          "name": "",
          "type": "tuple[]"
        }
      ],
      "stateMutability": "view",
      "type": "function"
    },
    {
      "inputs": [
        {
          "internalType": "address",
          "name": "retailer",
          "type": "address"
        }
      ],
      "name": "getRetailerInventory",
      "outputs": [
        {
          "components": [
            {
              "internalType": "uint256",
              "name": "unitId",
              "type": "uint256"
            },
            {
              "internalType": "uint256",
              "name": "parentPackId",
              "type": "uint256"
            },
            {
              "internalType": "address",
              "name": "retailer",
              "type": "address"
            },
            {
              "internalType": "uint256",
              "name": "quantityKg",
              "type": "uint256"
            },
            {
              "internalType": "uint256",
              "name": "pricePerKg",
              "type": "uint256"
            },
            {
              "internalType": "bool",
              "name": "available",
              "type": "bool"
            },
            {
              "internalType": "string",
              "name": "ipfsHash",
              "type": "string"
            },
            {
              "internalType": "uint256",
              "name": "createdAt",
              "type": "uint256"
            }
          ],
          "internalType": "struct SupplyChain.RetailUnit[]",
          "name": "",
          "type": "tuple[]"
        }
      ],
      "stateMutability": "view",
      "type": "function"
    },
    {
      "inputs": [
        {
          "internalType": "uint256",
          "name": "unitId",
          "type": "uint256"
        }
      ],
      "name": "getUnitTrace",
      "outputs": [
        {
          "components": [
            {
              "internalType": "uint256",
              "name": "batchId",
              "type": "uint256"
            },
            {
              "internalType": "address",
              "name": "farmer",
              "type": "address"
            },
            {
              "internalType": "string",
              "name": "cropName",
              "type": "string"
            },
            {
              "internalType": "string",
              "name": "cropPeriod",
              "type": "string"
            },
            {
              "internalType": "uint256",
              "name": "daysToHarvest",
              "type": "uint256"
            },
            {
              "internalType": "uint256",
              "name": "quantityKg",
              "type": "uint256"
            },
            {
              "internalType": "uint256",
              "name": "pricePerKg",
              "type": "uint256"
            },
            {
              "internalType": "string",
              "name": "location",
              "type": "string"
            },
            {
              "internalType": "enum SupplyChain.Visibility",
              "name": "visibility",
              "type": "uint8"
            },
            {
              "internalType": "string",
              "name": "ipfsHash",
              "type": "string"
            },
            {
              "internalType": "uint256",
              "name": "createdAt",
              "type": "uint256"
            },
            {
              "internalType": "bool",
              "name": "active",
              "type": "bool"
            }
          ],
          "internalType": "struct SupplyChain.FarmerProduct",
          "name": "farmer",
          "type": "tuple"
        },
        {
          "components": [
            {
              "internalType": "uint256",
              "name": "batchId",
              "type": "uint256"
            },
            {
              "internalType": "uint256",
              "name": "originBatchId",
              "type": "uint256"
            },
            {
              "internalType": "address",
              "name": "distributor",
              "type": "address"
            },
            {
              "internalType": "uint256",
              "name": "quantityKg",
              "type": "uint256"
            },
            {
              "internalType": "uint256",
              "name": "purchasePricePerKg",
              "type": "uint256"
            },
            {
              "internalType": "uint256",
              "name": "listedPricePerKg",
              "type": "uint256"
            },
            {
              "internalType": "enum SupplyChain.Visibility",
              "name": "visibility",
              "type": "uint8"
            },
            {
              "internalType": "uint256",
              "name": "createdAt",
              "type": "uint256"
            },
            {
              "internalType": "bool",
              "name": "active",
              "type": "bool"
            }
          ],
          "internalType": "struct SupplyChain.DistributorBatch",
          "name": "distributor",
          "type": "tuple"
        },
        {
          "components": [
            {
              "internalType": "uint256",
              "name": "packId",
              "type": "uint256"
            },
            {
              "internalType": "uint256",
              "name": "distributorBatchId",
              "type": "uint256"
            },
            {
              "internalType": "address",
              "name": "distributor",
              "type": "address"
            },
            {
              "internalType": "uint256",
              "name": "quantityKg",
              "type": "uint256"
            },
            {
              "internalType": "uint256",
              "name": "pricePerKg",
              "type": "uint256"
            },
            {
              "internalType": "enum SupplyChain.Visibility",
              "name": "visibility",
              "type": "uint8"
            },
            {
              "internalType": "address",
              "name": "privateBuyer",
              "type": "address"
            },
            {
              "internalType": "bool",
              "name": "available",
              "type": "bool"
            },
            {
              "internalType": "string",
              "name": "ipfsHash",
              "type": "string"
            },
            {
              "internalType": "uint256",
              "name": "createdAt",
              "type": "uint256"
            }
          ],
          "internalType": "struct SupplyChain.RetailPack",
          "name": "pack",
          "type": "tuple"
        },
        {
          "components": [
            {
              "internalType": "uint256",
              "name": "unitId",
              "type": "uint256"
            },
            {
              "internalType": "uint256",
              "name": "parentPackId",
              "type": "uint256"
            },
            {
              "internalType": "address",
              "name": "retailer",
              "type": "address"
            },
            {
              "internalType": "uint256",
              "name": "quantityKg",
              "type": "uint256"
            },
            {
              "internalType": "uint256",
              "name": "pricePerKg",
              "type": "uint256"
            },
            {
              "internalType": "bool",
              "name": "available",
              "type": "bool"
            },
            {
              "internalType": "string",
              "name": "ipfsHash",
              "type": "string"
            },
            {
              "internalType": "uint256",
              "name": "createdAt",
              "type": "uint256"
            }
          ],
          "internalType": "struct SupplyChain.RetailUnit",
          "name": "unit",
          "type": "tuple"
        }
      ],
      "stateMutability": "view",
      "type": "function"
    },
    {
      "inputs": [],
      "name": "getUserCount",
      "outputs": [
        {
          "internalType": "uint256",
          "name": "",
          "type": "uint256"
        }
      ],
      "stateMutability": "view",
      "type": "function"
    },
    {
      "inputs": [
        {
          "internalType": "address",
          "name": "user",
          "type": "address"
        }
      ],
      "name": "getUserInfo",
      "outputs": [
        {
          "components": [
            {
              "internalType": "enum SupplyChain.Role",
              "name": "role",
              "type": "uint8"
            },
            {
              "internalType": "bool",
              "name": "requested",
              "type": "bool"
            },
            {
              "internalType": "string",
              "name": "idHash",
              "type": "string"
            },
            {
              "internalType": "string",
              "name": "meta",
              "type": "string"
            },
            {
              "internalType": "uint256",
              "name": "appliedAt",
              "type": "uint256"
            },
            {
              "internalType": "bool",
              "name": "exists",
              "type": "bool"
            }
          ],
          "internalType": "struct SupplyChain.UserInfo",
          "name": "",
          "type": "tuple"
        }
      ],
      "stateMutability": "view",
      "type": "function"
    },
    {
      "inputs": [
        {
          "internalType": "uint8",
          "name": "role",
          "type": "uint8"
        }
      ],
      "name": "getUsersByRole",
      "outputs": [
        {
          "internalType": "address[]",
          "name": "",
          "type": "address[]"
        }
      ],
      "stateMutability": "view",
      "type": "function"
    },
    {
      "inputs": [
        {
          "internalType": "uint256",
          "name": "packId",
          "type": "uint256"
        },
        {
          "internalType": "uint8",
          "name": "visibility",
          "type": "uint8"
        },
        {
          "internalType": "address",
          "name": "optionalPrivateAddress",
          "type": "address"
        }
      ],
      "name": "listPack",
      "outputs": [],
      "stateMutability": "nonpayable",
      "type": "function"
    },
    {
      "inputs": [
        {
          "internalType": "uint256",
          "name": "unitId",
          "type": "uint256"
        },
        {
          "internalType": "uint8",
          "name": "",
          "type": "uint8"
        }
      ],
      "name": "listUnitForCustomers",
      "outputs": [],
      "stateMutability": "nonpayable",
      "type": "function"
    },
    {
      "inputs": [],
      "name": "owner",
      "outputs": [
        {
          "internalType": "address",
          "name": "",
          "type": "address"
        }
      ],
      "stateMutability": "view",
      "type": "function"
    },
    {
      "inputs": [
        {
          "internalType": "address",
          "name": "",
          "type": "address"
        }
      ],
      "name": "pendingWithdrawals",
      "outputs": [
        {
          "internalType": "uint256",
          "name": "",
          "type": "uint256"
        }
      ],
      "stateMutability": "view",
      "type": "function"
    },
    {
      "inputs": [
        {
          "internalType": "uint256",
          "name": "",
          "type": "uint256"
        }
      ],
      "name": "purchaseRecords",
      "outputs": [
        {
          "internalType": "uint256",
          "name": "purchaseId",
          "type": "uint256"
        },
        {
          "internalType": "uint256",
          "name": "unitId",
          "type": "uint256"
        },
        {
          "internalType": "uint256",
          "name": "quantityKg",
          "type": "uint256"
        },
        {
          "internalType": "uint256",
          "name": "pricePerKg",
          "type": "uint256"
        },
        {
          "internalType": "uint256",
          "name": "qtyKg",
          "type": "uint256"
        },
        {
          "internalType": "address",
          "name": "seller",
          "type": "address"
        },
        {
          "internalType": "address",
          "name": "buyer",
          "type": "address"
        },
        {
          "internalType": "enum SupplyChain.Role",
          "name": "sellerRole",
          "type": "uint8"
        },
        {
          "internalType": "enum SupplyChain.Role",
          "name": "buyerRole",
          "type": "uint8"
        },
        {
          "internalType": "uint256",
          "name": "timestamp",
          "type": "uint256"
        }
      ],
      "stateMutability": "view",
      "type": "function"
    },
    {
      "inputs": [],
      "name": "renounceOwnership",
      "outputs": [],
      "stateMutability": "nonpayable",
      "type": "function"
    },
    {
      "inputs": [
        {
          "internalType": "uint8",
          "name": "role",
          "type": "uint8"
        },
        {
          "internalType": "string",
          "name": "idHash",
          "type": "string"
        },
        {
          "internalType": "string",
          "name": "meta",
          "type": "string"
        }
      ],
      "name": "requestRole",
      "outputs": [],
      "stateMutability": "nonpayable",
      "type": "function"
    },
    {
      "inputs": [
        {
          "internalType": "uint256",
          "name": "",
          "type": "uint256"
        }
      ],
      "name": "retailPacks",
      "outputs": [
        {
          "internalType": "uint256",
          "name": "packId",
          "type": "uint256"
        },
        {
          "internalType": "uint256",
          "name": "distributorBatchId",
          "type": "uint256"
        },
        {
          "internalType": "address",
          "name": "distributor",
          "type": "address"
        },
        {
          "internalType": "uint256",
          "name": "quantityKg",
          "type": "uint256"
        },
        {
          "internalType": "uint256",
          "name": "pricePerKg",
          "type": "uint256"
        },
        {
          "internalType": "enum SupplyChain.Visibility",
          "name": "visibility",
          "type": "uint8"
        },
        {
          "internalType": "address",
          "name": "privateBuyer",
          "type": "address"
        },
        {
          "internalType": "bool",
          "name": "available",
          "type": "bool"
        },
        {
          "internalType": "string",
          "name": "ipfsHash",
          "type": "string"
        },
        {
          "internalType": "uint256",
          "name": "createdAt",
          "type": "uint256"
        }
      ],
      "stateMutability": "view",
      "type": "function"
    },
    {
      "inputs": [
        {
          "internalType": "uint256",
          "name": "",
          "type": "uint256"
        }
      ],
      "name": "retailUnits",
      "outputs": [
        {
          "internalType": "uint256",
          "name": "unitId",
          "type": "uint256"
        },
        {
          "internalType": "uint256",
          "name": "parentPackId",
          "type": "uint256"
        },
        {
          "internalType": "address",
          "name": "retailer",
          "type": "address"
        },
        {
          "internalType": "uint256",
          "name": "quantityKg",
          "type": "uint256"
        },
        {
          "internalType": "uint256",
          "name": "pricePerKg",
          "type": "uint256"
        },
        {
          "internalType": "bool",
          "name": "available",
          "type": "bool"
        },
        {
          "internalType": "string",
          "name": "ipfsHash",
          "type": "string"
        },
        {
          "internalType": "uint256",
          "name": "createdAt",
          "type": "uint256"
        }
      ],
      "stateMutability": "view",
      "type": "function"
    },
    {
      "inputs": [
        {
          "internalType": "address",
          "name": "user",
          "type": "address"
        }
      ],
      "name": "revokeRole",
      "outputs": [],
      "stateMutability": "nonpayable",
      "type": "function"
    },
    {
      "inputs": [
        {
          "internalType": "uint256",
          "name": "distributorBatchId",
          "type": "uint256"
        },
        {
          "internalType": "uint256[]",
          "name": "splitQuantities",
          "type": "uint256[]"
        },
        {
          "internalType": "uint256[]",
          "name": "pricesPerKg",
          "type": "uint256[]"
        },
        {
          "internalType": "string[]",
          "name": "ipfsHashes",
          "type": "string[]"
        }
      ],
      "name": "splitDistributorBatch",
      "outputs": [],
      "stateMutability": "nonpayable",
      "type": "function"
    },
    {
      "inputs": [
        {
          "internalType": "uint256",
          "name": "unitId",
          "type": "uint256"
        },
        {
          "internalType": "uint256[]",
          "name": "unitQuantities",
          "type": "uint256[]"
        },
        {
          "internalType": "uint256[]",
          "name": "unitPricesPerKg",
          "type": "uint256[]"
        },
        {
          "internalType": "string[]",
          "name": "ipfsHashes",
          "type": "string[]"
        }
      ],
      "name": "splitRetailUnit",
      "outputs": [],
      "stateMutability": "nonpayable",
      "type": "function"
    },
    {
      "inputs": [],
      "name": "totalBuyRequests",
      "outputs": [
        {
          "internalType": "uint256",
          "name": "",
          "type": "uint256"
        }
      ],
      "stateMutability": "view",
      "type": "function"
    },
    {
      "inputs": [],
      "name": "totalDistributorBatches",
      "outputs": [
        {
          "internalType": "uint256",
          "name": "",
          "type": "uint256"
        }
      ],
      "stateMutability": "view",
      "type": "function"
    },
    {
      "inputs": [],
      "name": "totalFarmerProducts",
      "outputs": [
        {
          "internalType": "uint256",
          "name": "",
          "type": "uint256"
        }
      ],
      "stateMutability": "view",
      "type": "function"
    },
    {
      "inputs": [],
      "name": "totalPurchases",
      "outputs": [
        {
          "internalType": "uint256",
          "name": "",
          "type": "uint256"
        }
      ],
      "stateMutability": "view",
      "type": "function"
    },
    {
      "inputs": [],
      "name": "totalRetailPacks",
      "outputs": [
        {
          "internalType": "uint256",
          "name": "",
          "type": "uint256"
        }
      ],
      "stateMutability": "view",
      "type": "function"
    },
    {
      "inputs": [],
      "name": "totalRetailUnits",
      "outputs": [
        {
          "internalType": "uint256",
          "name": "",
          "type": "uint256"
        }
      ],
      "stateMutability": "view",
      "type": "function"
    },
    {
      "inputs": [
        {
          "internalType": "address",
          "name": "newOwner",
          "type": "address"
        }
      ],
      "name": "transferOwnership",
      "outputs": [],
      "stateMutability": "nonpayable",
      "type": "function"
    },
    {
      "inputs": [
        {
          "internalType": "uint256",
          "name": "batchId",
          "type": "uint256"
        },
        {
          "internalType": "uint256",
          "name": "newQuantityKg",
          "type": "uint256"
        },
        {
          "internalType": "uint256",
          "name": "newPricePerKg",
          "type": "uint256"
        },
        {
          "internalType": "uint8",
          "name": "newVisibility",
          "type": "uint8"
        },
        {
          "internalType": "string",
          "name": "newIpfsHash",
          "type": "string"
        },
        {
          "internalType": "bool",
          "name": "setActive",
          "type": "bool"
        }
      ],
      "name": "updateProduct",
      "outputs": [],
      "stateMutability": "nonpayable",
      "type": "function"
    },
    {
      "inputs": [
        {
          "internalType": "address",
          "name": "",
          "type": "address"
        }
      ],
      "name": "users",
      "outputs": [
        {
          "internalType": "enum SupplyChain.Role",
          "name": "role",
          "type": "uint8"
        },
        {
          "internalType": "bool",
          "name": "requested",
          "type": "bool"
        },
        {
          "internalType": "string",
          "name": "idHash",
          "type": "string"
        },
        {
          "internalType": "string",
          "name": "meta",
          "type": "string"
        },
        {
          "internalType": "uint256",
          "name": "appliedAt",
          "type": "uint256"
        },
        {
          "internalType": "bool",
          "name": "exists",
          "type": "bool"
        }
      ],
      "stateMutability": "view",
      "type": "function"
    },
    {
      "inputs": [],
      "name": "withdraw",
      "outputs": [],
      "stateMutability": "nonpayable",
      "type": "function"
    },
    {
      "stateMutability": "payable",
      "type": "receive"
    }
  ],
  "bytecode": "0x608034620004525760008054336001600160a01b0319808316821784559392916001600160a01b03167f8be0079c531659141344cd1fd0a4f28419497f9722a3daafe3b4186f6b6457e08380a360018080556001600160401b039390929060c0820185811183821017620002385760405260058252602091828101958487526200008862000457565b90858252604083019182526200009d62000457565b9086825260608401918252608084019242845260a0850199898b52338952600288526040892095519060068210156200043e5760ff61ff0088549251151560081b1692169061ffff19161717855588850190519081518381116200042a578154928b84811c941680156200041f575b8a8510146200040b578190601f94858111620003b8575b508a908583116001146200034a578c926200033e575b5050600019600383901b1c1916908b1b1790555b60028501925180519283116200032a5783548a81811c911680156200031f575b898210146200030b57828111620002c3575b50879183116001146200025857600495949392918991836200024c575b5050600019600383901b1c191690891b1790555b51600382015501945115159460ff199560ff8783541691161790556003546801000000000000000081101562000238578481018060035581101562000224579160049184936003604096528285200190339082541617905533835252209182541617905560405161586d90816200048e8239f35b634e487b7160e01b84526032600452602484fd5b634e487b7160e01b84526041600452602484fd5b0151905038806200019c565b949392918991601f19821690848b52898b20918b5b8b828210620002ac57505097836004991062000292575b505050811b019055620001b0565b015160001960f88460031b161c1916905538808062000284565b838b015185558e969094019392830192016200026d565b848a52888a208380860160051c8201928b871062000301575b0160051c01908b905b828110620002f55750506200017f565b8b8155018b90620002e5565b92508192620002dc565b634e487b7160e01b8a52602260045260248afd5b90607f16906200016d565b634e487b7160e01b89526041600452602489fd5b01519050388062000139565b848d528b8d208e94509190601f1984168e8e5b8282106200039757505084116200037d575b505050811b0190556200014d565b015160001960f88460031b161c191690553880806200036f565b91929395968291958786015181550195019301908f95949392918e6200035d565b909150838c528a8c208580850160051c8201928d861062000401575b918f91869594930160051c01915b828110620003f257505062000123565b8e81558594508f9101620003e2565b92508192620003d4565b634e487b7160e01b8b52602260045260248bfd5b93607f16936200010c565b634e487b7160e01b8a52604160045260248afd5b634e487b7160e01b8a52602160045260248afd5b600080fd5b60405190602082016001600160401b038111838210176200047757604052565b634e487b7160e01b600052604160045260246000fdfe60806040526004361015610036575b361561001957600080fd5b3360005260116020526040600020610032348254614c9e565b9055005b60003560e01c806321034444146141b257806325159805146141945780632a1c235114613dce5780633b510b1d14613d2f5780633ccfd60b14613c1b5780634c041cd9146139e157806354ad290e146138c95780635962a941146138ab5780636386c1c7146137fc578063669086801461323557806367d0de371461303e578063715018a614612fe557806371f3c4ef14612ea757806376b0194114612dfa57806380e52e3f14612d53578063870d09c514612c9257806389a64d4a14612a365780638da5cb5b14612a0d578063949fb8ba1461295657806395ce098114612938578063983839221461272657806398a45adb1461268e578063a0c999691461235d578063a40b72e11461233f578063a574e0c8146121be578063a87430ba14612112578063aa46b66f14611e4f578063b0bf3dac14611aca578063b4bc6fae146117cb578063b5cb15f7146117ad578063c22fb9291461174f578063c2afc793146114ca578063d3389b8514610f61578063ddb7a4de14610e30578063e2842d7914610ced578063e594c648146109dc578063ef9d8dca1461089b578063f2fde38b146107d7578063f3f437031461079d578063fa2a5d7514610701578063fb04dd4b146106e3578063fdca4ca31461044b578063fe09b5ec146102425763ff3fa4b90361000e573461023d57600036600319011261023d576020600754604051908152f35b600080fd5b3461023d57600036600319011261023d5760038054600090815b8181106103b9575061027661027083615707565b92615739565b926000805b8381106102955760405180610291888883614aa0565b0390f35b61029e816150ee565b60018060a01b03915490851b1c168060005260029060208281526040600020549260ff9289600895858082891c16918261038c575b50506102e8575b50505050505060010161027b565b9261034d8895938360049461030460019b9c6103809b99614b52565b52600052808352604060002092856040519761031f8961457d565b85549061032e8383168b614b7c565b1c1615159087015261034189840161460d565b6040870152820161460d565b6060850152888101546080850152015416151560a082015261036f828a614b52565b5261037a8189614b52565b50614b16565b919087808080896102da565b1691505060068110156103a3578a9015858e6102d3565b634e487b7160e01b600052602160045260246000fd5b6103c2816150ee565b9060018060a01b039182915490871b1c16600052600260209080825260ff918260406000205460081c169384610418575b50505050610404575b60010161025c565b91610410600191614b16565b9290506103fc565b9091929350610426856150ee565b905490891b1c16600052526040600020541660068110156103a35715858080806103f3565b3461023d57600036600319011261023d5733600052600260206002815260ff8060406000205416926006808510156103a35761048d6001959395809414614b88565b60059160055492600096855b8581111561068657506104c46104ae89614b3b565b986104bc6040519a8b6145ec565b808a52614b3b565b601f190160005b81811061066a575050600093865b868111156105435789898960405191808301818452845180915260408401918060408360051b8701019601926000905b8382106105165786880387f35b90919293948380610532839a603f198b820301865289516147aa565b999701959493919091019101610509565b8060009a989a52600b808a526040600020908154918b8d84151580610655575b61057e575b505050505061057690614b16565b9896986104d9565b9261064a94928892610576979c956040519561059987614598565b86528201546001600160a01b0316908501526105b68b820161460d565b60408501526105c76003820161460d565b6060850152600481015460808501528981015460a08501528781015460c08501526105f46007820161460d565b60e085015261060d836008830154166101008601614e80565b6106196009820161460d565b610120850152600a810154610140850152015416151561016082015261063f828c614b52565b5261037a818b614b52565b95908b808b8d610568565b50828101546001600160a01b03163314610563565b88906106779a989a614e23565b82828b010152019896986104cb565b80600099979952600b885260406000208054151590816106cd575b506106b8575b6106b090614b16565b979597610499565b956106c56106b091614b16565b9690506106a7565b8a01546001600160a01b0316331490508a6106a1565b3461023d57600036600319011261023d576020600954604051908152f35b3461023d57602036600319011261023d57600435600052600c602052610120604060002080549060018101549061078e60018060a01b036002830154166003830154600484015460058501549160ff6006870154169360ff600860078901549801541697604051998a5260208a015260408901526060880152608087015260a086015260c085019061473f565b60e08301521515610100820152f35b3461023d57602036600319011261023d576001600160a01b036107be61446c565b1660005260116020526020604060002054604051908152f35b3461023d57602036600319011261023d576107f061446c565b6107f86157df565b6001600160a01b0390811690811561084757600054826001600160601b0360a01b821617600055167f8be0079c531659141344cd1fd0a4f28419497f9722a3daafe3b4186f6b6457e0600080a3005b60405162461bcd60e51b815260206004820152602660248201527f4f776e61626c653a206e6577206f776e657220697320746865207a65726f206160448201526564647265737360d01b6064820152608490fd5b3461023d5760208060031936011261023d57600435600052600d81526040600020604051906108c982614561565b80548252600181015483830190815261095660018060a01b0393846002850154166040820152600384015460608201526004840154608082015260ff600585015461091982821660a08501614e80565b868160081c1660c084015260a81c16151560e0820152600761093d6006860161460d565b9461010095868401520154610120820152511515614fbe565b51600052600c835260406000209060ff600860405193610975856145b4565b8054855260018101549587860196875260028201541660408601526003810154606086015260048101546080860152600581015460a08601526109c18360068301541660c08701614e80565b600781015460e0860152015416151591015251604051908152f35b3461023d576109ea366144bf565b90919392949533600052600260205260ff6040600020541660068110156103a3576003610a1a9198979814614b88565b600052600e602052604060002095610a3487541515615212565b6002870154610a4d906001600160a01b03163314614dac565b610a58858514614bec565b610a63828514614c38565b60009460005b858110610cc8575060038801548611610c835760005b858110610aaf5788610a95886003830154614d60565b80600383015515610aa257005b600501805460ff19169055005b6008610abb8154614b16565b80915580600052600e602052604060002090815560018a0154600182015560028101336001600160601b0360a01b825416179055610afa82888b614c8e565b356003820155610b0b828486614c8e565b35600482015560058101805460ff19166001179055610b2b828688614cc3565b906001600160401b038211610c6d57610b5482610b4b6006860154614527565b60068601614d1b565b600090601f8311600114610bf95760019493929160009183610bee575b5050600019600383901b1c191690841b1760068201555b4260078201558054838c0154907fcdf39da8f0023d4d1d194a43508204b3a50c233fa8270b04763d6410237bad84610be5600460038601549501549460405191829133974291846040919493926060820195825260208201520152565b0390a401610a7f565b013590508d80610b71565b6006840160005260206000209160005b601f1985168110610c5557509183916001969594938794601f19811610610c3b575b505050811b016006820155610b88565b0135600019600384901b60f8161c191690558d8080610c2b565b90926020600181928686013581550194019101610c09565b634e487b7160e01b600052604160045260246000fd5b60405162461bcd60e51b815260206004820152601c60248201527f537570706c79436861696e3a2073756d206578636565647320717479000000006044820152606490fd5b95610ce3600191610cdc89898c9d9c614c8e565b3590614c9e565b9601979697610a69565b3461023d57600036600319011261023d5760038054610d0b81615739565b9160005b828110610d9a57505060405180828193835260208093019060036000527fc2575a0e9e593c00f959f8c92f12db2869c3395a3b0502d05e2516446f71f85b936000905b828210610d7757505050610d68925003826145ec565b61029160405192839283614aa0565b85546001600160a01b031684526001958601958795509381019390910190610d52565b80610da66001926150ee565b838060a01b03915490851b1c166000526002602081815260046040600020610dfc60405194610dd48661457d565b82549460ff86610de7828099168a614b7c565b60081c1615159087015261034188840161460d565b6060850152868101546080850152015416151560a0820152610e1e8287614b52565b52610e298186614b52565b5001610d0f565b3461023d5760208060031936011261023d5760ff9060ff610e4f614702565b1691610e5e60058411156150a2565b60038054916000805b848110610f0d5750610e7890615707565b9360009160005b858110610e9c57604051602080825281906102919082018a614a63565b610ea5816150ee565b90546001600160a01b0391871b1c81166000908152600285526040902054831660068110156103a3578914610ede575b50600101610e7f565b8194610f0691610eef6001946150ee565b905490891b1c16610f00828b614b52565b52614b16565b9390610ed5565b610f16816150ee565b905490851b1c6001600160a01b03166000908152600287526040902054831660068110156103a3578714610f4d575b600101610e67565b90610f59600191614b16565b919050610f45565b3461023d5761010036600319011261023d576004356001600160401b03811161023d57610f92903690600401614712565b906024356001600160401b03811161023d57610fb2903690600401614712565b919060a4356001600160401b03811161023d57610fd3903690600401614712565b9060c4359460ff8616860361023d5760e4356001600160401b03811161023d57611001903690600401614712565b94909733600052600260205260ff6040600020541660068110156103a357600161102b9114614b88565b6064351561148557608435156114475761104b600160ff8a16111561500a565b611056600554614b16565b968760055587600052600b602052604060002097885560018801336001600160601b0360a01b8254161790556001600160401b038211610c6d5781906110ac826110a360028c0154614527565b60028c01614d1b565b600090601f83116001146113d6576000926113cb575b50508160011b916000199060031b1c19161760028701555b6001600160401b038211610c6d578190611104826110fb60038a0154614527565b60038a01614d1b565b600090601f831160011461135a5760009261134f575b50508160011b916000199060031b1c19161760038501555b6044356004850155606435600585015560843560068501556001600160401b038211610c6d5781906111748261116b6007880154614527565b60078801614d1b565b600090601f83116001146112de576000926112d3575b50508160011b916000199060031b1c19161760078301555b600260ff841610156103a3576111be60ff841660088401614cab565b60098201906001600160401b038111610c6d576111e5816111df8454614527565b84614d1b565b6000601f821160011461126c578192939495600092611261575b50508160011b916000199060031b1c19161790555b42600a820155600b8101600160ff198254161790555460ff604051921682524260208301527f8c7f70de6d89542031e13836c8f9d53f5c6ce55e54dca423cb713ea36a9df07c60403393a3005b0135905085806111ff565b601f198216958360005260206000209160005b8881106112bb575083600195969798106112a1575b505050811b019055611214565b0135600019600384901b60f8161c19169055858080611294565b9092602060018192868601358155019401910161127f565b01359050868061118a565b909250600785016000526020600020906000935b601f1984168510611337576001945083601f1981161061131d575b505050811b0160078301556111a2565b0135600019600384901b60f8161c1916905586808061130d565b818101358355602094850194600190930192016112f2565b01359050888061111a565b909250600387016000526020600020906000935b601f19841685106113b3576001945083601f19811610611399575b505050811b016003850155611132565b0135600019600384901b60f8161c19169055888080611389565b8181013583556020948501946001909301920161136e565b013590508a806110c2565b909250600289016000526020600020906000935b601f198416851061142f576001945083601f19811610611415575b505050811b0160028701556110da565b0135600019600384901b60f8161c191690558a8080611405565b818101358355602094850194600190930192016113ea565b60405162461bcd60e51b81526020600482015260166024820152750537570706c79436861696e3a207072696365203e20360541b6044820152606490fd5b60405162461bcd60e51b815260206004820152601960248201527f537570706c79436861696e3a207175616e74697479203e2030000000000000006044820152606490fd5b3461023d5760208060031936011261023d576114e461446c565b9060095460009260015b828111156116e2575061151961150385614b3b565b9461151160405196876145ec565b808652614b3b565b601f19018360005b8281106116cc5750505060009060015b838111156115d757604080518681528751818801819052888801928201908860005b8281106115605784840385f35b85518051855280830151858401526040808201516001600160a01b0316908601526060808201519086015260808082015115159086015260a0808201519086015260c08082015115159086015260e08082015115159086015261010090810151908501529481019461012090930192600101611553565b80600052600f808652604060002060ff60069181838201541615611608575b5050505061160390614b16565b611531565b60010154600052600d885260018060a01b03916002938385604060002001541684881614611637575b506115f6565b926116c19492600792879995611603986000528c526040600020926040519561165f876145b4565b8454875260018501548e880152840154166040860152600383015460608601526004830154821615156080860152600583015460a0860152820154808216151560c086015260081c16151560e0840152015461010082015261036f828a614b52565b929087808080611631565b6116d4614e8c565b828289010152018490611521565b80600052600f8452604060002060ff6006820154161561170c575b5061170790614b16565b6114ee565b600101546000908152600d855260409020600201546001600160a01b0383811691161461173a575b856116fd565b9361174761170791614b16565b949050611734565b3461023d57604036600319011261023d57602435801515810361023d5733600052600260205260ff604060002054169060068210156103a35761179760026117a79314614b88565b61179f615789565b60043561529d565b60018055005b3461023d57600036600319011261023d576020600354604051908152f35b3461023d57602036600319011261023d576117e4614e23565b506117ed614e8c565b506117f6614f21565b506117ff61525e565b50600435600052600e602052611aa6604060002060405190611820826145d0565b8054825260018101546020830190815260028201546001600160a01b031660408401526003820154606084015260048201546080840152600582015460ff16151560a0840152906007906118766006820161460d565b60c0850152015460e083015261188e82511515615212565b51600052600d602052610291604060002091604051926118ad84614561565b8054845260018101546020850190815260028201546001600160a01b0316604086015260038201546060860152600482015460808601526005820154909160079160ff9061190081831660a08a01614e80565b600881901c6001600160a01b031660c089015260a81c16151560e087015261192a6006820161460d565b610100870152015461012085015251600052600c60205260406000209060405191611954836145b4565b8054835260ff60086001830154926020860193845260018060a01b0360028201541660408701526003810154606087015260048101546080870152600581015460a08701526119ac8360068301541660c08801614e80565b600781015460e0870152015416151561010084015251600052600b602052611abd604060002092604051956119e087614598565b8454875260018501546001600160a01b03166020880152611a036002860161460d565b6040880152611a146003860161460d565b606088015260048501546080880152600585015460a0880152600685015460c0880152611a436007860161460d565b60e0880152611a5d60ff6008870154166101008901614e80565b611a696009860161460d565b61012088015260ff600b600a8701549661014097888b01520154169461016095151586890152611ab1604051998a99610180808c528b01906147aa565b9360208a0190614856565b87830390880152614900565b91848303908501526149fc565b3461023d57606036600319011261023d57611ae3614702565b6001600160401b036024803582811161023d57611b04903690600401614712565b909260443581811161023d57611b2060ff913690600401614712565b91909616956001948588148015611e45575b15611de5573360005260209660028852604060002095865460ff81166006811015611dd057611d8c5761ff00191661010017875587870191868211611d77578190611b8782611b818654614527565b86614d1b565b600090601f8311600114611d1457600092611d09575b5050600019600383901b1c191690881b1790555b60028501938311611cf55750611bd182611bcb8554614527565b85614d1b565b600090601f8311600114611c8b5760049493929160009183611c80575b5050600019600383901b1c191690851b1790555b426003820155019060ff19918183825416179055336000526004835260ff6040600020541615611c5c575b50507fd1459ff4cef342225fa955f3422559f5cf811e33e3aeea80b43db4c776b151d5604051914283523392a3005b611c6533615125565b33600052600483526040600020918254161790558280611c2d565b013590508880611bee565b918591949392601f1982169084600052886000209160005b8a828210611cdf575050968360049810611cc5575b505050811b019055611c02565b0135600019600384901b60f8161c19169055888080611cb8565b838a01358555988901988a969094019301611ca3565b634e487b7160e01b60009081526041600452fd5b013590508b80611b9d565b60008581528c81208c95509290601f198516908e5b828210611d605750508411611d46575b505050811b019055611bb1565b0135600019600384901b60f8161c191690558b8080611d39565b8385013586558e979095019492830192018e611d29565b83634e487b7160e01b60005260416004526000fd5b60405162461bcd60e51b8152600481018b9052601f818601527f537570706c79436861696e3a20616c726561647920686173206120726f6c65006044820152606490fd5b84634e487b7160e01b60005260216004526000fd5b60849060336040519162461bcd60e51b8352602060048401528201527f537570706c79436861696e3a206f6e6c79204661726d6572206f7220446973746044820152721c9a589d5d1bdc8818d85b881c995c5d595cdd606a1b6064820152fd5b5060028814611b32565b611e58366149e6565b336000526020916002835260ff6040600020541660068110156103a3576002611e819114614b88565b611e89615789565b80600052600b83526040600020928354151580612104575b156120a85760ff6008850154169360028510156103a35760018095148015612093575b1561203857611ff07fc0d1700ed1206408d2c687dbf2d84c21d243ddcddd1a5dc39a3b4e1e7787fb2b918515158061202a575b611f0090615167565b6006810193611f1a611f138654896151b3565b34146151c6565b87611f26600654614b16565b928360065583600052600c83526040600020938455878285015560028401336001600160601b0360a01b825416179055886003850155865480600486015560058501556006840160ff1990838282541617905542600786015560088501838282541617905560058201611f9a8b8254614d60565b8091551561201a575b50019060018060a01b03600080808034858854165af1611fc1614d6d565b5015611ff7575b5050505492549460405191829133974291846040919493926060820195825260208201520152565b0390a48055005b6011925416600052526040600020612010348254614c9e565b9055878080611fc8565b600b82019081541690558a611fa3565b506005810154861115611ef7565b60405162461bcd60e51b815260048101839052602d60248201527f537570706c79436861696e3a206e6f7420616c6c6f77656420746f206275792060448201526c0e0e4d2ecc2e8ca40c4c2e8c6d609b1b6064820152608490fd5b50808501546001600160a01b03163314611ec4565b6084906040519062461bcd60e51b82526004820152602f60248201527f537570706c79436861696e3a206661726d6572206261746368206e6f7420666f60448201526e756e64206f7220696e61637469766560881b6064820152fd5b5060ff600b85015416611ea1565b3461023d57602036600319011261023d576001600160a01b0361213361446c565b16600052600260205260ff60406000208054906121526001820161460d565b6121ad6121616002840161460d565b61219f8660046003870154960154169360405197876121838a83819b16614482565b60081c161515602088015260c0604088015260c08701906146b2565b9085820360608701526146b2565b916080840152151560a08301520390f35b606036600319011261023d576024356004356044358015159081810361023d576121e6615789565b82600052600d602052604060002061220081541515614fbe565b60ff600582015460a81c16156122fa57611f13600461223392871515806122ec575b61222b90615167565b0154866151b3565b61228e612241600954614b16565b918260095582600052600f602052604060002092835584600184015560028301336001600160601b0360a01b825416179055856003840155600483019060ff801983541691151516179055565b3460058201556006810161ffff198154169055426007820155549060405193845260208401523460408401524260608401527fffaa3f2ca7a735e36b5adab1f989c6f24d937add66ec9fc7acaf5506ee01529e60803394a460018055005b506003810154881115612222565b60405162461bcd60e51b815260206004820152601f60248201527f537570706c79436861696e3a207061636b206e6f7420617661696c61626c65006044820152606490fd5b3461023d57600036600319011261023d576020600554604051908152f35b3461023d5760208060031936011261023d5761237761446c565b60069060065490600780549160009460009560015b86811115612633575060015b858111156125d857506123ad6123b391614ed1565b96614f6e565b94600060015b828111156124f45750505060009160015b858111156123fc576123ef886102918b8a6040519485946040865260408601906148be565b9184830390850152614989565b80600052600d8952604060002085815491821515806124db575b61242c575b50505061242790614b16565b6123ca565b916124279396916124d2936040519261244484614561565b835260018101548e84015260028101546001600160a01b0390811660408501526003820154606085015260048201546080850152600582015460ff9161248f83831660a08801614e80565b8160081c1660c086015260a81c16151560e08401526124af88820161460d565b61010084015201546101208201526124c7828b614b52565b5261037a818a614b52565b9390858b61241b565b5060028101546001600160a01b03868116911614612416565b80600052600c8a526040600020805490811515806125bf575b612522575b505061251d90614b16565b6123b9565b926125b79161251d939460405191612539836145b4565b825260018101548e83015260028101546001600160a01b031660408301526003810154606083015260048101546080830152600581015460a08301528781015460ff9160089161258e90841660c08601614e80565b8b81015460e085015201541615156101008201526125ac828d614b52565b5261037a818c614b52565b91908b612512565b5060028101546001600160a01b0388811691161461250d565b80600052600d89526040600020805415159081612619575b50612604575b6125ff90614b16565b612398565b966126116125ff91614b16565b9790506125f6565b600201546001600160a01b0386811691161490508a6125f0565b80600052600c89526040600020805415159081612674575b5061265f575b61265a90614b16565b61238c565b9061266c61265a91614b16565b919050612651565b600201546001600160a01b0386811691161490508a61264b565b3461023d57602036600319011261023d57600435600052600f602052610120604060002080549060ff60018201549160018060a01b036002820154166003820154836004840154169060058401549260076006860154950154966040519889526020890152604088015260608701521515608086015260a0850152818116151560c085015260081c16151560e0830152610100820152f35b3461023d5760208060031936011261023d5761274061446c565b60085460009160015b828111156128dd575061277461275e84614b3b565b9361276c60405195866145ec565b808552614b3b565b601f19018460005b8281106128c757505050600060015b838111156127f157604080518781528651818901819052600092600582901b8301810191898b01918b9085015b8287106127c55785850386f35b9091929382806127e1600193603f198a820301865288516149fc565b96019201960195929190926127b8565b80600052600e86526040600020805490811515806128ae575b61281f575b505061281a90614b16565b61278b565b926128a691600761281a949560405192612838846145d0565b835260018101548b84015260028101546001600160a01b031660408401526003810154606084015260048101546080840152600581015460ff16151560a08401526128856006820161460d565b60c0840152015460e082015261289b8289614b52565b5261037a8188614b52565b91908761280f565b5060028101546001600160a01b0386811691161461280a565b6128cf61525e565b82828801015201859061277c565b80600052600e8552604060002080541515908161291e575b50612909575b61290490614b16565b612749565b9261291661290491614b16565b9390506128fb565b600201546001600160a01b038481169116149050866128f5565b3461023d57600036600319011261023d576020600654604051908152f35b3461023d57604036600319011261023d576004356129726146f2565b5033600052600260205260ff6040600020541660068110156103a357600361299a9114614b88565b80600052600e602052600560406000206129b681541515615212565b60028101546129cf906001600160a01b03163314614dac565b01600160ff198254161790557f8b497a05d0ca742340c6ea9777f95403b7c38b7db415e50d58da7b92d04952146040805160018152426020820152a2005b3461023d57600036600319011261023d576000546040516001600160a01b039091168152602090f35b612a3f366149e6565b90612a48615789565b806000526020600e81526040600020908154151580612c84575b15612c405783151580612c32575b612a7990615167565b6004820193612a8c611f138654836151b3565b612a97600a54614b16565b9283600a558360005260108352604060002093845584600185015581600485015585546003850155600281019360018060a01b039182865416600583016001600160601b0360a01b91828254161790556006830190815490339082161782558488541660005260028752604060002054600660ff821610156103a35760ff60a01b9060a01b168060ff60a01b1933166affffffffffffffffffffff60a81b8416171783553360005260028852604060002054600660ff821610156103a35760ff60a81b9060a81b169161ffff60a01b1933169069ffffffffffffffffffff60b01b161717179055426007830155600080808034878b54165af1612b98614d6d565b5015612c10575b60038101612bae858254614d60565b80915515612bff575b505493541694549160405195865285015260408401524260608401527f29783e630fdd45b25ced917bc7e004251d86b554fdf4458f4b6d68de19ce17df60803394a460018055005b600501805460ff1916905587612bb7565b82865416600052601185526040600020612c2b348254614c9e565b9055612b9f565b506003820154841115612a70565b6064906040519062461bcd60e51b82526004820152601f60248201527f537570706c79436861696e3a20756e6974206e6f7420617661696c61626c65006044820152fd5b5060ff600583015416612a62565b3461023d57602036600319011261023d57600435600052600d6020526040600020805490600181015490612d4860018060a01b0391826002820154169460ff6003830154946004840154906005850154916007612cf16006880161460d565b960154976040519a8b9a610140978c5260208c015260408b015260608a01526080890152612d2460a0890184841661473f565b8160081c1660c088015260a81c16151560e0860152806101008601528401906146b2565b906101208301520390f35b3461023d57602036600319011261023d57612d6c61446c565b612d746157df565b6001600160a01b0316600081815260026020526040902060040154612d9b9060ff16615056565b80600052600260205260ff604060002054169060068210156103a357806000526002602052604060002061ffff1981541690557f656386f7fbf5fbd79ebb5d508870678c1d0ba774d3af78f5971f7d32d0da18bd6020604051428152a3005b3461023d57602036600319011261023d5760043560005260106020526101406040600020805490612e9f6001820154916002810154600382015490600483015460018060a01b039283600586015416926007600687015496015497604051998a5260208a015260408901526060880152608087015260a0860152811660c0850152612e8e60e0850160ff8360a01c16614482565b60ff61010085019160a81c16614482565b610120820152f35b3461023d57604036600319011261023d57612ec061446c565b612ec86146f2565b612ed06157df565b6001600160a01b038216908115612fa05760ff90826000526002602052612f008260046040600020015416615056565b1691612f0f60058411156150a2565b60068310156103a35781600052600260205260406000208361ffff19825416178155600342910155600460205260ff6040600020541615612f78575b507f1ebf9c3ff339a80f8d2af7a4f2483755c64ca9ae97178045118ca0051a5b5bbb6020604051428152a3005b612f8190615125565b8060005260046020526040600020600160ff1982541617905582612f4b565b60405162461bcd60e51b815260206004820152601960248201527f537570706c79436861696e3a207a65726f2061646472657373000000000000006044820152606490fd5b3461023d57600036600319011261023d57612ffe6157df565b600080546001600160a01b0319811682556001600160a01b03167f8be0079c531659141344cd1fd0a4f28419497f9722a3daafe3b4186f6b6457e08280a3005b3461023d57606036600319011261023d5760043561305a6146f2565b6044356001600160a01b03818116929083830361023d5733600052600260205260ff6040600020541660068110156103a35760026130989114614b88565b84600052600d6020526040600020916130b383541515614fbe565b3382600285015416036131f05760ff16916130d1600184111561500a565b60028310156103a357600501936130e88386614cab565b845460ff811660028110156103a3576131b7575015613164578354610100600160a81b03191660089390931b610100600160a81b03169290921783557fa954f6fe988fac0764a5205a7f69afb2bb27163cf0d9ded97f3f49358f259e4b92606092905b5460081c166040519182526020820152426040820152a2005b60405162461bcd60e51b815260206004820152602560248201527f537570706c79436861696e3a20707269766174652061646472657373207265716044820152641d5a5c995960da1b6064820152608490fd5b610100600160a81b0319168555507fa954f6fe988fac0764a5205a7f69afb2bb27163cf0d9ded97f3f49358f259e4b936060935061314b565b60405162461bcd60e51b815260206004820152601b60248201527f537570706c79436861696e3a206e6f74207061636b206f776e657200000000006044820152606490fd5b3461023d57602036600319011261023d5761324e614e23565b50600435600052600b602052604060002060ff600b6040519261327084614598565b8054845260018101546001600160a01b031660208501526132936002820161460d565b60408501526132a46003820161460d565b606085015260048101546080850152600581015460a0850152600681015460c08501526132d36007820161460d565b60e08501526132ec836008830154166101008601614e80565b6132f86009820161460d565b610120850152600a81015461014085015201541615156101608201528051156137ab5760065490600060015b83811115613759575061333690614ed1565b91600060015b8281111561368857505050600754600060015b8281111561351f575061336190614f6e565b90600060015b828111156133ab5761338f856102918661339d8a6040519586956060875260608701906147aa565b9085820360208701526148be565b908382036040850152614989565b80600052600d60205260406000206007604051916133c883614561565b805483526001810154602084015260028101546001600160a01b031660408401526003810154606084015260048101546080840152600581015460ff9061341481831660a08701614e80565b600881901c6001600160a01b031660c086015260a81c16151560e084015261343e6006820161460d565b61010084015201546101208201528051613462575b5061345d90614b16565b613367565b6020810151600052600c602052604060002060ff600860405192613485846145b4565b805484526001810154602085015260028101546001600160a01b031660408501526003810154606085015260048101546080850152600581015460a085015260068101546134d890841660c08601614e80565b600781015460e0850152015416151561010082015260206004359101510361345357826135189161350d61345d949588614b52565b5261037a8187614b52565b9190613453565b80600052600d602052604060002060076040519161353c83614561565b805483526001810154602084015260028101546001600160a01b031660408401526003810154606084015260048101546080840152600581015460ff9061358881831660a08701614e80565b600881901c6001600160a01b031660c086015260a81c16151560e08401526135b26006820161460d565b610100840152015461012082015280516135d6575b506135d190614b16565b61334f565b60200151600052600c602052604060002060ff6008604051926135f8846145b4565b805484526001810154602085015260028101546001600160a01b031660408501526003810154606085015260048101546080850152600581015460a0850152600681015461364b90841660c08601614e80565b600781015460e085015201541615156101008201526020015160043514613673575b856135c7565b906136806135d191614b16565b91905061366d565b80600052600c60205260406000208054908115158061374a575b6136b7575b50506136b290614b16565b61333c565b926137429160ff60086136b29596604051936136d2856145b4565b84526001810154602085015260028101546001600160a01b031660408501526003810154606085015260048101546080850152600581015460a0850152600681015461372390841660c08601614e80565b600781015460e0850152015416151561010082015261289b8289614b52565b9190866136a7565b506004356001820154146136a2565b80600052600c602052604060002080541515908161379b575b50613786575b61378190614b16565b613324565b9061379361378191614b16565b919050613778565b6001015460043514905085613772565b60405162461bcd60e51b815260206004820152602360248201527f537570706c79436861696e3a206661726d6572206261746368206e6f7420666f6044820152621d5b9960ea1b6064820152608490fd5b3461023d57602036600319011261023d5761381561446c565b61381d614df1565b5060018060a01b03166000526002602052610291604060002060ff6004604051926138478461457d565b82815461385682821687614b7c565b60081c161515602085015261386d6001820161460d565b604085015261387e6002820161460d565b606085015260038101546080850152015416151560a082015260405191829160208352602083019061474c565b3461023d57600036600319011261023d576020600a54604051908152f35b3461023d57602036600319011261023d57600435600052600b6020526040600020805490600160a01b60019003600182015416906002810161390a9061460d565b6139166003830161460d565b60048301546005840154600685015490916139336007870161460d565b91600887015460ff16936009880161394a9061460d565b95600a89015498600b015460ff16976040519b8c9b610180918d5260208d01528060408d01528b0161397b916146b2565b8a810360608c015261398c916146b2565b9260808a015260a089015260c088015286810360e08801526139ad916146b2565b9061010086016139bc9161473f565b8481036101208601526139ce916146b2565b9161014084015215156101608301520390f35b3461023d5760c036600319011261023d5760043560243590604435916064359260ff841680940361023d576001600160401b0360843581811161023d57613a2c903690600401614712565b909360a43594851515860361023d5786600052602097600b8952604060002095865415613bd657600193613a6c60018060a01b03868a0154163314614dac565b80613bcb575b5080613bc0575b5082811115613ba4575b5082613ad2575b8787613aa588600b89019060ff801983541691151516179055565b7f94175357e14197ed5c707794d9cad6f16ba39999d0adf8b6d74bdeb9127917a7604051924284523393a3005b60098501938311610c6d57613aeb83611b818654614527565b600090601f8411600114613b35579280600b95938193613aa5999896600094613b2a575b50501b916000199060031b1c19161790555b91928680613a8a565b013592508b80613b0f565b601f9392931983169185600052896000209260005b8b828210613b9057505091613aa5989795939185600b98969410613b76575b505050811b019055613b21565b0135600019600384901b60f8161c19169055898080613b69565b848401358655948701949283019201613b4a565b60028110156103a357613bba9060088701614cab565b88613a83565b600687015589613a79565b60058801558a613a72565b60405162461bcd60e51b8152600481018b9052601e60248201527f537570706c79436861696e3a2070726f64756374206e6f7420666f756e6400006044820152606490fd5b3461023d57600036600319011261023d57613c34615789565b33600052602060118152604060002054908115613cec57336000526011815260006040812055600080808085335af1613c6b614d6d565b5015613ca85760405191825242908201527f92ccf450a286a957af52509bc1c9939d1a6a481783e142e41e2499f0bb66ebc660403392a260018055005b6064906040519062461bcd60e51b82526004820152601c60248201527f537570706c79436861696e3a207769746864726177206661696c6564000000006044820152fd5b6064906040519062461bcd60e51b825280600483015260248201527f537570706c79436861696e3a206e6f7468696e6720746f2077697468647261776044820152fd5b3461023d57602036600319011261023d57600435600052600e60205260406000208054600182015490613dc460018060a01b0360028501541693600381015492600482015460ff600584015416906007613d8b6006860161460d565b94015495604051988998610100958a5260208a0152604089015260608801526080870152151560a08601528060c08601528401906146b2565b9060e08301520390f35b3461023d57613ddc366144bf565b9095929594919433600052600260205260ff6040600020541660068110156103a3576002613e0a9114614b88565b83600052600c6020526040600020958654151580614186575b15614124576002870154336001600160a01b03909116036140cb57613e49818714614bec565b613e54838714614c38565b60009560005b8181106140b25750600388015487116140565760005b818110613ea05788613e86896003830154614d60565b80600383015515613e9357005b600801805460ff19169055005b613eab600754614b16565b8060075580600052600d602052604060002090815587600182015560028101336001600160601b0360a01b825416179055613ee7828489614c8e565b356003820155613ef882858d614c8e565b3560048201556005810180546001600160b01b031916600160a81b179055613f21828787614cc3565b906001600160401b038211610c6d57613f4182610b4b6006860154614527565b600090601f8311600114613fe25760019493929160009183613fd7575b5050600019600383901b1c191690841b1760068201555b4260078201558881547fb70b76668a09b3af66768dba9e78ffeff8f6ea1b1ab19d56dc5f0684f8300f3e613fce600460038601549501549460405191829133974291846040919493926060820195825260208201520152565b0390a401613e70565b013590508e80613f5e565b6006840160005260206000209160005b601f198516811061403e57509183916001969594938794601f19811610614024575b505050811b016006820155613f75565b0135600019600384901b60f8161c191690558e8080614014565b90926020600181928686013581550194019101613ff2565b60405162461bcd60e51b815260206004820152602e60248201527f537570706c79436861696e3a2073756d2065786365656473206469737472696260448201526d75746f722062617463682071747960901b6064820152608490fd5b966140c4600191610cdc8a858a614c8e565b9701613e5a565b60405162461bcd60e51b815260206004820152602b60248201527f537570706c79436861696e3a206e6f74206f776e6572206f662064697374726960448201526a0c4eae8dee440c4c2e8c6d60ab1b6064820152608490fd5b60405162461bcd60e51b815260206004820152603460248201527f537570706c79436861696e3a206469737472696275746f72206261746368206e6044820152736f7420666f756e64206f7220696e61637469766560601b6064820152608490fd5b5060ff600888015416613e23565b3461023d57600036600319011261023d576020600854604051908152f35b3461023d5760208060031936011261023d576141cc61446c565b600a546001600160a01b03929160009190841660015b8281111561441157506141f761275e84614b3b565b601f19018460005b8281106143b35750505060009060015b838111156142cd5750505050604051918083018184528251809152816040850193019160005b8281106142425785850386f35b9091929382610140600192875180518252838101518483015260408101516040830152606080820151908301526080808201519083015260a08b81830151169083015260c08b8183015116908301526142a360e082015160e0840190614482565b6142b66101008083015190840190614482565b610120908101519082015201950193929101614235565b806000526010865285604060002060068101548981168a86821480156143a4575b614306575b505050505061430190614b16565b61420f565b926143858361439796946143776007956143019a9c98604051986143298a614561565b87548a526001880154908a0152600287015460408a0152600387015460608a0152600487015460808a01526005870154169060a091828a015260c089015260ff9384911c1660e08801614b7c565b60a81c166101008501614b7c565b015461012082015261289b8289614b52565b929050858880808a6142f3565b508681600586015416146142ee565b6040516143bf81614561565b60008152600083820152600060408201526000606082015260006080820152600060a0820152600060c0820152600060e0820152600061010082015260006101208201528282880101520185906141ff565b80600052601085526040600020828781816006850154161492831561445c575b505050614447575b61444290614b16565b6141e2565b9261445461444291614b16565b939050614439565b6005015416149050828789614431565b600435906001600160a01b038216820361023d57565b9060068210156103a35752565b9181601f8401121561023d578235916001600160401b03831161023d576020808501948460051b01011161023d57565b608060031982011261023d57600435916001600160401b0360243581811161023d57836144ee9160040161448f565b9390939260443583811161023d57826145099160040161448f565b9390939260643591821161023d576145239160040161448f565b9091565b90600182811c92168015614557575b602083101461454157565b634e487b7160e01b600052602260045260246000fd5b91607f1691614536565b61014081019081106001600160401b03821117610c6d57604052565b60c081019081106001600160401b03821117610c6d57604052565b61018081019081106001600160401b03821117610c6d57604052565b61012081019081106001600160401b03821117610c6d57604052565b61010081019081106001600160401b03821117610c6d57604052565b90601f801991011681019081106001600160401b03821117610c6d57604052565b9060405191826000825461462081614527565b908184526020946001916001811690816000146146905750600114614651575b50505061464f925003836145ec565b565b600090815285812095935091905b81831061467857505061464f9350820101388080614640565b8554888401850152948501948794509183019161465f565b9250505061464f94925060ff191682840152151560051b820101388080614640565b919082519283825260005b8481106146de575050826000602080949584010152601f8019910116010190565b6020818301810151848301820152016146bd565b6024359060ff8216820361023d57565b6004359060ff8216820361023d57565b9181601f8401121561023d578235916001600160401b03831161023d576020838186019501011161023d57565b9060028210156103a35752565b90614758818351614482565b60208201511515602082015260a080614795614783604086015160c0604087015260c08601906146b2565b606086015185820360608701526146b2565b93608081015160808501520151151591015290565b9061483b6148146147e46147836101808651865260018060a01b0360208801511660208701526040870151908060408801528601906146b2565b6080850151608085015260a085015160a085015260c085015160c085015260e085015184820360e08601526146b2565b614827610100808601519085019061473f565b6101208085015190848303908501526146b2565b91610140808201519083015261016080910151151591015290565b805182526020810151602083015260018060a01b036040820151166040830152606081015160608301526080810151608083015260a081015160a08301526148a660c082015160c084019061473f565b60e081015160e0830152610100809101511515910152565b90815180825260208080930193019160005b8281106148de575050505090565b9091929382610120826148f46001948951614856565b019501939291016148d0565b9061497b6101408351835260208401516020840152604084015160018060a01b038091166040850152606085015160608501526080850151608085015261494f60a086015160a086019061473f565b60c08501511660c084015260e0840151151560e0840152610100908082860151928501528301906146b2565b916101208091015191015290565b90808251908181526020809101926020808460051b8301019501936000915b8483106149b85750505050505090565b90919293949584806149d6600193601f198682030187528a51614900565b98019301930191949392906149a8565b604090600319011261023d576004359060243590565b9060e080614a5a610100855185526020860151602086015260018060a01b036040870151166040860152606086015160608601526080860151608086015260a0860151151560a086015260c0860151908060c08701528501906146b2565b93015191015290565b90815180825260208080930193019160005b828110614a83575050505090565b83516001600160a01b031685529381019392810192600101614a75565b90614ab390604083526040830190614a63565b90602090818184039101528251908183528083019281808460051b8301019501936000915b848310614ae85750505050505090565b9091929394958480614b06600193601f198682030187528a5161474c565b9801930193019194939290614ad8565b6000198114614b255760010190565b634e487b7160e01b600052601160045260246000fd5b6001600160401b038111610c6d5760051b60200190565b8051821015614b665760209160051b010190565b634e487b7160e01b600052603260045260246000fd5b60068210156103a35752565b15614b8f57565b60405162461bcd60e51b815260206004820152602f60248201527f537570706c79436861696e3a2063616c6c657220646f6573206e6f742068617660448201526e6520726571756972656420726f6c6560881b6064820152608490fd5b15614bf357565b60405162461bcd60e51b815260206004820152601c60248201527f537570706c79436861696e3a206c656e677468206d69736d61746368000000006044820152606490fd5b15614c3f57565b60405162461bcd60e51b815260206004820152602160248201527f537570706c79436861696e3a2069706673206c656e677468206d69736d6174636044820152600d60fb1b6064820152608490fd5b9190811015614b665760051b0190565b91908201809211614b2557565b9060028110156103a35760ff80198354169116179055565b9190811015614b665760051b81013590601e198136030182121561023d5701908135916001600160401b03831161023d57602001823603811361023d579190565b818110614d0f575050565b60008155600101614d04565b9190601f8111614d2a57505050565b61464f926000526020600020906020601f840160051c83019310614d56575b601f0160051c0190614d04565b9091508190614d49565b91908203918211614b2557565b3d15614da7573d906001600160401b038211610c6d5760405191614d9b601f8201601f1916602001846145ec565b82523d6000602084013e565b606090565b15614db357565b60405162461bcd60e51b815260206004820152601660248201527529bab838363ca1b430b4b71d103737ba1037bbb732b960511b6044820152606490fd5b60405190614dfe8261457d565b600060a083828152826020820152606060408201526060808201528260808201520152565b60405190614e3082614598565b81610160600091828152826020820152606060408201526060808201528260808201528260a08201528260c0820152606060e0820152826101008201526060610120820152826101408201520152565b60028210156103a35752565b60405190614e99826145b4565b816101006000918281528260208201528260408201528260608201528260808201528260a08201528260c08201528260e08201520152565b90614edb82614b3b565b614ee860405191826145ec565b8281528092614ef9601f1991614b3b565b019060005b828110614f0a57505050565b602090614f15614e8c565b82828501015201614efe565b60405190614f2e82614561565b816101206000918281528260208201528260408201528260608201528260808201528260a08201528260c08201528260e082015260606101008201520152565b90614f7882614b3b565b614f8560405191826145ec565b8281528092614f96601f1991614b3b565b019060005b828110614fa757505050565b602090614fb2614f21565b82828501015201614f9b565b15614fc557565b60405162461bcd60e51b815260206004820152601b60248201527f537570706c79436861696e3a207061636b206e6f7420666f756e6400000000006044820152606490fd5b1561501157565b60405162461bcd60e51b815260206004820152601f60248201527f537570706c79436861696e3a20696e76616c6964207669736962696c697479006044820152606490fd5b1561505d57565b60405162461bcd60e51b815260206004820152601b60248201527f537570706c79436861696e3a2075736572206e6f7420666f756e6400000000006044820152606490fd5b156150a957565b60405162461bcd60e51b815260206004820152601960248201527f537570706c79436861696e3a20696e76616c696420726f6c65000000000000006044820152606490fd5b600354811015614b665760036000527fc2575a0e9e593c00f959f8c92f12db2869c3395a3b0502d05e2516446f71f85b0190600090565b60035468010000000000000000811015610c6d5780600161514992016003556150ee565b60018060a09493941b038084549260031b9316831b921b1916179055565b1561516e57565b60405162461bcd60e51b815260206004820152601860248201527f537570706c79436861696e3a20696e76616c69642071747900000000000000006044820152606490fd5b81810292918115918404141715614b2557565b156151cd57565b60405162461bcd60e51b815260206004820152601e60248201527f537570706c79436861696e3a20696e636f7272656374207061796d656e7400006044820152606490fd5b1561521957565b60405162461bcd60e51b815260206004820152601b60248201527f537570706c79436861696e3a20756e6974206e6f7420666f756e6400000000006044820152606490fd5b6040519061526b826145d0565b8160e06000918281528260208201528260408201528260608201528260808201528260a0820152606060c08201520152565b60009081526020600f8152604092838320938454156156c457600685019384549360ff85166156815760019687810180548452600d8352848420966152e488541515614fbe565b6002888101546001600160a01b039a9198908b163303615632578b90159261ff00841560081b169061ffff1916171790556155b05760058201848080808454335af161532e614d6d565b5015615592575b506003820191825460038901908154808211615534579061535591614d60565b80915515615520575b615369600854614b16565b9485600855858152600e855286812095865582548b8701558a6004898401958c8754168b8a01906001600160601b0360a01b825416179055549a600389019b8c5501549860048801998a55600588019260ff19938385825416179055600060068a016153d58154614527565b601f8111615502575b50554260078a01558c60ff600487015416806154c2575b938b9a989692938b7fcdf39da8f0023d4d1d194a43508204b3a50c233fa8270b04763d6410237bad849e9d9561548c9c9a98947fe78865c8cdcc5a0bb19ef6d81cd636fea14ba8ef2c8d07f76f7681a2039156fd98615491575b5050505050505492549b8c9454169c8d9582519182524290820152a454945492549151928352602083019190915242604083015281906060820190565b0390a4565b600493818c541683528c528282206003878254161790558a54168152200191825416179055388e818f81869161544f565b5090919250865416815281875260ff898220541660068110156154ee578d9291908d90600314156153f5565b634e487b7160e01b82526021600452602482fd5b8184528a842061551a91601f0160051c810190614d04565b386153de565b60058801805460ff60a81b1916905561535e565b885162461bcd60e51b815260048101889052603160248201527f537570706c79436861696e3a207061636b20646f65736e277420686176652074604482015270686174206d756368207175616e7469747960781b6064820152608490fd5b54338552601184526155a8868620918254614c9e565b905538615335565b9550959096507fe78865c8cdcc5a0bb19ef6d81cd636fea14ba8ef2c8d07f76f7681a2039156fd93860195818754168380808060058601948554905af16155f5614d6d565b5015615611575b505494549554169582519182524290820152a4565b548288541684526011895261562a858520918254614c9e565b9055386155fc565b875162461bcd60e51b815260048101879052602260248201527f537570706c79436861696e3a2063616c6c6572206e6f74207061636b206f776e60448201526132b960f11b6064820152608490fd5b60649083519062461bcd60e51b82526004820152601d60248201527f537570706c79436861696e3a20616c7265616479207265736f6c7665640000006044820152fd5b5162461bcd60e51b815260048101839052601e60248201527f537570706c79436861696e3a2072657175657374206e6f7420666f756e6400006044820152606490fd5b9061571182614b3b565b61571e60405191826145ec565b828152809261572f601f1991614b3b565b0190602036910137565b9061574382614b3b565b61575060405191826145ec565b8281528092615761601f1991614b3b565b019060005b82811061577257505050565b60209061577d614df1565b82828501015201615766565b60026001541461579a576002600155565b60405162461bcd60e51b815260206004820152601f60248201527f5265656e7472616e637947756172643a207265656e7472616e742063616c6c006044820152606490fd5b6000546001600160a01b031633036157f357565b606460405162461bcd60e51b815260206004820152602060248201527f4f776e61626c653a2063616c6c6572206973206e6f7420746865206f776e65726044820152fdfea2646970667358221220615063223bdbfebbb9783010c5dea1c7a9aa78ffd59098eec7d77ed60c18f5ac64736f6c63430008180033",
  "linkReferences": {},
  "deployedLinkReferences": {}
}